:020000040800F2
:100000000000032049050008B9210008C7210008A5
:10001000CD210008D3210008D921000800000000EC
:10002000000000000000000000000000DF210008C8
:10003000ED21000800000000FB2100080922000853
:100040009D0500089D0500089D0500087F22000809
:100050009D0500089D0500089D0500089D050008F8
:100060009D0500089D050008712200089D050008F7
:100070009D0500089D050008152200089D05000843
:100080009D0500089D0500089D0500089D050008C8
:100090009D0500089D0500089D0500089D050008B8
:1000A0009D0500089D0500089D0500089D050008A8
:1000B0009D0500089D0500089D0500089D05000898
:1000C0009D0500089D0500089D0500089D05000888
:1000D000292200083D2200089D0500089D05000812
:1000E0009D0500089D0500089D0500089D05000868
:1000F000972200088B220008512200089D05000865
:100100009D0500089D0500089D0500089D05000847
:100110009D0500089D0500089D0500089D05000837
:100120009D0500089D0500085D2200089D0500084A
:0C0130009D0500089D0500089D050008C5
:1001400010B5054C237833B9044B13B10448AFF311
:1001500000800123237010BDB002002000000000C9
:10016000D8CE000808B5034B1BB103490348AFF3D1
:10017000008008BD00000000B4020020D8CE0008B6
:10018000034613F8012B002AFBD1181A01387047D7
:1001900001F0FF01102A2BDB10F0070F08D010F838
:1001A000013B013A8B422DD010F0070F42B3F6D13C
:1001B000F0B441EA012141EA014122F007047FF055
:1001C00000070023F0E80256083C85EA010586EAAC
:1001D000010685FA47F5A3FA87F586FA47F6A5FAE8
:1001E00087F68EB9EED1F0BC01F0FF0102F00702F4
:1001F00032B110F8013B013A83EA010313B1F8D19F
:100200000020704701387047002D06BF354603387F
:10021000073815F0010F07D1013015F4807F02BFB8
:10022000013015F4C03F0130F0BC0138704700BF09
:1002300053B94AB9002908BF00281CBF4FF0FF314D
:100240004FF0FF3000F072B9ADF1080C6DE904CE4B
:1002500000F006F8DDF804E0DDE9022304B07047A1
:100260002DE9F047089E04468846002B4BD18A4270
:10027000154667D9B2FA82F24AB1C2F1200701FAF3
:1002800002F320FA07F7954047EA030894404FEA43
:10029000154E230CB8FBFEF71FFA85FC0EFB1788E2
:1002A00043EA084307FB0CF1994209D9EB1807F11F
:1002B000FF3080F01B81994240F21881023F2B44AD
:1002C0005B1AA4B2B3FBFEF00EFB103344EA034406
:1002D00000FB0CFCA44509D92C1900F1FF3380F078
:1002E0000781A44540F2048102382C4440EA0740CB
:1002F000A4EB0C0400271EB1D4400023C6E9004340
:100300003946BDE8F0878B4209D9002E00F0EB801A
:100310000027C6E9000138463946BDE8F087B3FA40
:1003200083F7002F47D18B4202D3824200F2FA803A
:10033000841A61EB030301209846002EE0D0C6E941
:100340000048DDE702B9FFDEB2FA82F2002A40F08F
:100350008F80491B4FEA154E1FFA85F80127B1FB24
:10036000FEFC230C0EFB1C1143EA014308FB0CF1BD
:10037000994207D9EB180CF1FF3002D2994200F2F2
:10038000CD808446591AA3B2B1FBFEF00EFB1014C7
:1003900043EA044408FB00F8A04507D92C1900F1F2
:1003A000FF3302D2A04500F2B6801846A4EB080441
:1003B00040EA0C409FE7C7F1200CBB4022FA0CFE3C
:1003C0004EEA030E01FA07F420FA0CF521FA0CF3B9
:1003D0004FEA1E482543B3FBF8F92C0C08FB1933F0
:1003E0001FFA8EFA44EA034309FB0AF49C4202FA1C
:1003F00007F200FA07F10BD91EEB030309F1FF30F6
:1004000080F087809C4240F28480A9F10209734405
:100410001B1BADB2B3FBF8F008FB103345EA0344F5
:1004200000FB0AFAA24508D91EEB040400F1FF33D1
:100430006BD2A24569D90238744440EA0940A0FB56
:100440000289A4EB0A044C45C2464B4654D351D012
:10045000002E69D0B1EB0A0564EB030404FA0CFC2E
:10046000FD40FC404CEA0505C6E90054002747E77B
:10047000C2F1200320FA03F7954001FA02F021FAB5
:1004800003F34FEA154E3843010CB3FBFEF71FFA96
:1004900085F80EFB173341EA034107FB08F38B4253
:1004A00004FA02F407D9691807F1FF3C2FD28B42F6
:1004B0002DD9023F2944CB1A81B2B3FBFEF00EFBCB
:1004C000103341EA034100FB08F38B4207D9691856
:1004D00000F1FF3C17D28B4215D902382944C91AC2
:1004E00040EA07473BE73746304609E70746E7E675
:1004F0001846FBE64145ABD2B8EB020A69EB0E02A7
:1005000001381346A4E76046E9E7184695E76746D1
:10051000D1E781467CE702382C4447E7ACF1020C76
:100520002B442FE7384608E73746E9E6704700BF17
:10053000D458C4500433C4188C42F9D370470360B4
:1005400004308842FBD370470C4885460C480D495F
:100550000D4A0023FFF7EFFF0C480D490023FFF77A
:10056000F0FF0C480C490023FFF7EBFF04F0EAFA18
:100570000BF0E8FC01F070FAFEE700000000032039
:1005800004000020AC000020FCDC0008B0020020C9
:100590006C160020E0010320570A0320FEE700004C
:1005A00080B483B000AF7860064BD3F89020054943
:1005B0007B681343C1F8903000BF0C37BD465DF82F
:1005C000047B70470008005880B485B000AF7860A5
:1005D0004FF0B043DA6C4FF0B0417B681343CB640B
:1005E0004FF0B043DA6C7B681340FB60FB6800BFE0
:1005F0001437BD465DF8047B704780B485B000AF0A
:1006000078604FF0B043D3F84C214FF0B0417B6895
:100610001343C1F84C314FF0B043D3F84C217B6801
:100620001340FB60FB6800BF1437BD465DF8047BD8
:10063000704780B500AF04F02FFC04F033FC4FF49A
:100640008030FFF7ADFF09F039FC00F021F800F031
:10065000BFF800BF80BD0000B0B588B000AF0B4B45
:100660003C1D1D460FCD0FC495E8070003C4228032
:100670000234130C23700BF081F93B1D18460AF06D
:1006800088F800BF2037BD46B0BD00BFF0CE0008DF
:1006900080B588B000AF3B1D00221A605A609A6096
:1006A000DA601A610023BB8300237B8300233B8332
:1006B0000023FB7733E0FB7F424ADB0013449B7946
:1006C000002B28D0FB7F3F4A52F833303E4A9342FA
:1006D0000FD03E4A934215D0B3F1904F00D01BE0AB
:1006E000FB7F384ADB0013449A88BB8B1343BB83E0
:1006F00012E0FB7F334ADB0013449A887B8B134361
:100700007B8309E0FB7F2F4ADB0013449A883B8BF5
:1007100013433B8300E000BFFB7F0133FB77FB7F8C
:10072000212BC8D90023FB600123BB6003233B615D
:10073000BB8B002B14D0BB8B7B600120FFF744FFE9
:100740000120FFF75AFF3B1D19464FF0904005F07E
:100750005BF8BB8B002219464FF0904005F0C4F9BE
:100760007B8B002B12D07B8B7B600220FFF72CFF52
:100770000220FFF742FF3B1D1946134805F044F8DD
:100780007B8B00221946104805F0AEF93B8B002BFD
:1007900013D03B8B7B600420FFF716FF0420FFF78C
:1007A0002CFF3B1D1946094805F02EF83B8B002213
:1007B0001946064805F098F900BF00BF2037BD462E
:1007C00080BD00BF40DA000800040048000800486F
:1007D00080B400AF00BFBD465DF8047B704780B5B4
:1007E00000AF01F0D7F900BF80BD80B584B000AF85
:1007F000F8600B467A607B817A897B68F968002013
:1008000000F032FF00BF1037BD4680BD80B483B01A
:1008100000AF7860074BD3F8803023F0070205491A
:100820007B681343C1F8803000BF0C37BD465DF8CC
:10083000047B70470004005880B483B000AF786038
:100840004FF0B0439B6823F400424FF0B0417B6807
:1008500013438B6000BF0C37BD465DF8047B7047C7
:1008600080B500AF00F014F80849002000F0FEFC4D
:10087000FFF7DFFE012101200BF022F900F067F8FD
:1008800000F075F800F012F800BF80BDA41500203C
:1008900080B500AF4FF40040FFF7CEFF0BF0FEF83D
:1008A0000420FFF7B3FF00BF80BD000080B588B013
:1008B00000AF0AF0ADFE114A00214FF480600BF04A
:1008C0000DFA0F4B3B600F4B7B603B4619460E48C1
:1008D00009F076FF0D4BBB600D4BFB600D4B3B6190
:1008E00040F23C537B6107F1080318460AF0D2FF3F
:1008F0000AF088FE00BF2037BD4680BDF9A700087A
:1009000024070320190900082F0900083C090320C7
:1009100030080320E801032080B483B000AF034611
:10092000FB7100BF0C37BD465DF8047B704780B596
:1009300082B000AF7860FFF78FFE01F053FD002119
:1009400001200BF0BDF800BF0837BD4680BD80B563
:1009500000AF002004F016F8012004F013F8022084
:1009600004F010F8012004F047F800BF80BD80B506
:1009700000AF0121002004F073F800BF80BD80B4F7
:1009800000AF00BFBD465DF8047B704780B582B004
:1009900000AF786039604FF0FF300BF0BFF800BF58
:1009A0000837BD4680BD80B582B000AF78600021B9
:1009B0004FF480600BF0B2F900BF0837BD4680BD30
:1009C00080B582B000AF786002200BF00DFA00BF56
:1009D0000837BD4680BD80B582B000AF7860022088
:1009E0000BF020FA00BF0837BD4680BD80B582B04D
:1009F00000AF0346FB80FB88022B0AD0102B02D0ED
:100A0000012B03D008E002F0A1FB05E002F0A6FBF9
:100A100002E002F0AAFB00BF00BF0837BD4680BD60
:100A200080B483B000AF7860064BD3F880200549CE
:100A30007B681343C1F8803000BF0C37BD465DF8BA
:100A4000047B70470008005880B483B000AF786022
:100A5000054B1A6804497B6813430B6000BF0C37D1
:100A6000BD465DF8047B70470008005880B483B031
:100A700000AF0D4B9B6A9BB27B600B4B9B6A9BB29A
:100A80003B6005E03B687B60074B9B6A9BB23B6029
:100A90007A683B689A42F5D13B6818460C37BD46E8
:100AA0005DF8047B704700BF0028004080B485B02B
:100AB00000AF03460A46FB711346BB71BA791D4964
:100AC00013465B001344DB000B4415331B78FB73A8
:100AD000FB7B062B09D0FA7B164913465B001344B7
:100AE000DB000B441433FA791A70FA791149134672
:100AF0005B001344DB000B441533FA7B1A70FA7960
:100B00000C4913465B001344DB000B441433BA79E1
:100B10001A70BA79074913465B001344DB000B4493
:100B20001533FA791A7000BF1437BD465DF8047B9F
:100B3000704700BFAC00002080B485B000AF034612
:100B40000A46FB711346BB71294B1B78DBB2BA799D
:100B50009A4232D0BA79274913465B001344DB002E
:100B60000B4414331B78FB73FA7B224913465B005A
:100B70001344DB000B441533FA791A70FA791D49D6
:100B800013465B001344DB000B441533BA791A702B
:100B9000FA79184913465B001344DB000B44143305
:100BA000FA7B1A70BA79134913465B001344DB00D1
:100BB0000B441433FA791A7014E0FA790D4913468C
:100BC0005B001344DB000B441533BA791A70BA7911
:100BD000084913465B001344DB000B441433FA79D5
:100BE0001A7000BF1437BD465DF8047B704700BF24
:100BF0003C010020AC00002080B584B000AF03466B
:100C0000FB714E4B1B78DBB2062B18D14B4B1B787C
:100C1000DAB24B4B1A70494AFB791370FA79494999
:100C200013465B001344DB000B44153306221A7095
:100C3000454B4FF0FF321A600023FB8178E000F053
:100C400009F90346FB81FA793E4913465B001344D8
:100C5000DB000B4408331968FB89FA7919443948D9
:100C600013465B001344DB00034408331960FA7930
:100C7000344913465B001344DB000B4408331B6804
:100C8000BB602E4B1B78DBB219462E4A0B465B002D
:100C90000B44DB00134408331B68BA689A4237D30D
:100CA000264B1B787B737A7B264913465B001344E3
:100CB000DB000B4415331B783B7313E07A7B21492F
:100CC00013465B001344DB000B4415331B787B7326
:100CD0007A7B1C4913465B001344DB000B4415333D
:100CE0001B783B733B7B062B0BD03A7B1549134695
:100CF0005B001344DB000B4408331B68BA689A425C
:100D0000DCD27A7BFB7911461846FFF7CFFE0FE065
:100D10000A4B1B78DAB2FB7911461846FFF70CFF35
:100D2000064B1B78DAB2064B1A70044AFB79137033
:100D3000FB8918461037BD4680BD00BF3C0100202E
:100D40003D010020AC0000204001002080B485B0AF
:100D500000AF03460A46FB711346BB71394B1B7843
:100D6000DBB2FA799A4211D1364B1B78DAB2364BA4
:100D70001A70FA79354913465B001344DB000B44C3
:100D800015331B78DAB22F4B1A703EE0FA792F49EF
:100D900013465B001344DB000B4414331B78FB73D6
:100DA000FA792A4913465B001344DB000B441533E0
:100DB0001B78BB73F979FA7B24480B465B000B4424
:100DC000DB00034415331B78D8B2204913465B007F
:100DD0001344DB000B44153302461A70BB7B062B11
:100DE00013D0F979BA7B19480B465B000B44DB0042
:100DF000034414331B78D8B2144913465B001344E0
:100E0000DB000B44143302461A70FA790F4913467B
:100E10005B001344DB000B440C3301221A70094BB6
:100E20001B78DBB2062B07D1BB79002B04D1084B12
:100E30004FF0FF321A6000BF00BF1437BD465DF8A7
:100E4000047B70473C0100203D010020AC000020E5
:100E50004001002080B582B000AF1A4B1B68B3F18F
:100E6000FF3F26D0FFF702FE7860164B1B687A68BA
:100E70009A4205D8134B1A687B68D31A7B600AE044
:100E8000114B1B881A467B68D31A3B600D4B1B68BD
:100E90003A6813447B600D4B1B781A467B6802FB53
:100EA00003F37B600A4B1B781A467B68D3407B6058
:100EB00001E000237B607B689BB218460837BD4683
:100EC00080BD00BF40010020D2020020D1020020DE
:100ED000D002002080B582B000AF0346FB80FB88C3
:100EE000002B08D1FFF7C2FD0246244B1A600320F5
:100EF00004F059F93EE0FB88012B03D8204B1B7806
:100F0000012B02D0FB88013BFB8000BF1D4B1B68FF
:100F10001B68DB6803F00403002BF7D0194B1B6838
:100F20001B68DB68DAB2174B1B681B6862F49062BF
:100F3000DA60154B4FF40022DA60032004F041F927
:100F4000124B5B691B0C1B04FA88104913434B615D
:100F5000FFF78CFD0246094B1A600A4B1B681B68A1
:100F60009A68084B1B681B6842F480629A60AFF372
:100F7000008000BF0837BD4680BD00BF4001002093
:100F8000D0020020CC0200200008005800280040B9
:100F900080B584B000AF474B9B6803F48063B3F522
:100FA000806F08D100BF444B1B681B68DB6803F0EF
:100FB0000403002BF7D1404B1B681B689A683E4B1B
:100FC0001B681B6822F480629A603C4B1B78FB73A1
:100FD000FA7B3B4913465B001344DB000B440833A8
:100FE0001B68BB60FFF736FF0346FB80FB88BA68CF
:100FF0009A4205D20023BB81324B01221A704DE088
:10100000FB88314A128892B213441A46BB68934255
:1010100006D92D4B1B88BB812A4B00221A703DE05C
:10102000BB689AB2FB88D31ABB81264B01221A7087
:1010300034E0FA7B224913465B001344DB000B4487
:1010400008331A68FB889A420AD2FA7B1C49134675
:101050005B001344DB000B44083300221A6013E0EA
:10106000FA7B174913465B001344DB000B4408333B
:101070001968FB88FA7BC91A114813465B001344B0
:10108000DB00034408331960FA7B0D4913465B000B
:101090001344DB000B4415331B78FB73FB7B062BDF
:1010A000C7D1BB891846FFF715FF00BF1037BD46F3
:1010B00080BD00BF00280040CC0200203C01002081
:1010C000AC00002044010020D402002080B58AB08A
:1010D00000AFEFF310837B617B697B6272B65E4B7E
:1010E0001B681B68CA225A625B4B1B681B68532231
:1010F0005A62594B1B681B689A68574B1B681B68E0
:1011000022F480629A60554B1B7887F8233097F859
:101110002320534913465B001344DB000B440C337C
:101120001B78DBB2022B70D197F823204C49134671
:101130005B001344DB000B441B68FB6197F8232022
:10114000474913465B001344DB000B4410331B6814
:10115000BB61444B1B78DBB2002B4ED097F82320A9
:101160003F4913465B001344DB000B440D331B78EF
:10117000DBB2012B25D197F8233001211846FFF768
:10118000E5FD7B6A3B613B6983F3108897F8232078
:10119000334913465B001344DB000B4404331A68E5
:1011A00097F823301146184600F0CAF92A4B1B68FD
:1011B0001B68CA225A62284B1B681B6853225A625A
:1011C00013E07B6AFB60FB6883F3108897F8233099
:1011D000184600F02BF9204B1B681B68CA225A6284
:1011E0001D4B1B681B6853225A6297F82330FA691B
:1011F0001946B86900F02AFA24E0FFF7C9FE7B6AB5
:10120000BB60BB6883F310881CE000BF124B1B68F7
:101210001B68DB6803F00403002BF7D00E4B1B6840
:101220001B68DB68DAB20C4B1B681B6862F49062C7
:10123000DA600D4B4FF40022DA607B6A7B607B68DA
:1012400083F31088044B1B681B68FF225A6200BF9F
:101250002837BD4680BD00BFCC0200203C010020E5
:10126000AC000020440100200008005880B586B082
:1012700000AF03463960FB71614A3B681360604B05
:101280001B681B68CA225A625D4B1B681B6853228D
:101290005A625C4B9B685B4A43F020039360594B56
:1012A0009B68DBB203F00703DBB2C3F10403DAB2DD
:1012B000554B1A70534B1B6903F4FE034FF4FE02A7
:1012C000FA60FA6892FAA2F2BA60BA68B2FA82F2E6
:1012D000D2B2D340DBB20133DAB24C4B1A70494B75
:1012E0001B699BB2C3F30E039BB201339AB2484B06
:1012F0001A80474B1B88013B444A127802FB03F3D8
:10130000A3F5A073404A1278D3403B613B694FF686
:10131000FE72934204D93F4B4FF6FF721A8003E0EE
:101320003B699AB23B4B1A804FF40020FFF78CFBCD
:101330004FF40020FFF774FBFB79002B43D1364BB1
:1013400001221A70354B4FF0FF321A600023FB75F3
:101350000CE0FA7D324913465B001344DB000B447A
:101360000C3300221A70FB7D0133FB75FB7D052BCE
:10137000EFD92C4B06221A70214B1B681B689A6808
:101380001F4B1B681B6822F480629A601C4B1B6811
:101390001B68DB68DAB21A4B1B681B6862F4906248
:1013A000DA60214B4FF40022DA60032003F009FFDA
:1013B000134B1B681B689A68114B1B681B6842F42F
:1013C00080429A600AE00E4B1B681B68DB6803F4DE
:1013D0008063002B02D0032003F0E5FE084B1B685E
:1013E0001B68FF225A6200220321032003F099FEAA
:1013F000032003F0B0FE00BF1837BD4680BD00BF1C
:10140000CC02002000280040D0020020D1020020A1
:10141000D2020020D402002044010020400100201C
:10142000AC0000203C0100200008005880B586B0C8
:1014300000AF0346FB71EFF31083FB60FB687B6139
:1014400072B6032003F095FE374B1B681B68CA2257
:101450005A62354B1B681B6853225A62FA7933492A
:1014600013465B001344DB000B440C331B78DBB2E8
:10147000022B48D1FB7900211846FFF767FC2C4B63
:101480001B78FB74FB7C062B35D12A4B9B6803F43D
:101490008063B3F5806F08D100BF234B1B681B68C6
:1014A000DB6803F00403002BF7D11F4B1B681B689C
:1014B0009A681D4B1B681B6822F480629A6000BF0B
:1014C000194B1B681B68DB6803F00403002BF7D083
:1014D000154B1B681B68DB68DAB2134B1B681B6873
:1014E00062F49062DA60144B4FF40022DA60032059
:1014F00003F067FE07E0114B1B78DBB2FA7C9A42DF
:1015000001D0FFF745FD084B1B681B68FF225A629C
:10151000032003F020FE7B69BB60BB6883F3108867
:1015200000BF1837BD4680BDCC020020AC000020B3
:101530003C01002000280040000800583D01002028
:1015400080B586B000AF03463960FB71FA793B493C
:1015500013465B001344DB000B440C331B78DBB2F7
:10156000022B03D1FB791846FFF760FFEFF31083DE
:10157000FB60FB687B6172B6032003F0FAFD304B21
:101580001B681B68CA225A622D4B1B681B685322BA
:101590005A62FA79294913465B001344DB000B4475
:1015A0000C3302221A70FA79244913465B00134463
:1015B000DB000B4408333A681A60FA791F49134676
:1015C0005B001344DB000B4404333A681A60FB7978
:1015D0001846FFF711FB03467B821A4B1B787B747E
:1015E000194B1B78DBB27A7C9A4202D0FFF7D0FC11
:1015F00013E0FA79114913465B001344DB000B44F6
:10160000083319687B8AFA79C91A0C4813465B00BB
:101610001344DB00034408331960094B1B681B6843
:10162000FF225A62032003F096FD7B69BB60BB6812
:1016300083F3108800BF1837BD4680BDAC00002082
:10164000CC0200203C0100203D01002080B584B088
:1016500000AFF8600B467A60FB727B68984700BF6A
:101660001037BD4680BD000080B586B000AFB960C0
:101670007B600346FB731346BB810023FB7500238D
:10168000BB75FB7B002B00D00EE0174A7B68136014
:10169000164B174A1A60BB891A46B968134806F0F8
:1016A00013FA0346FB7500BFFB7D032B16D801A27E
:1016B00052F823F0C5160008CB160008D116000812
:1016C000D71600080023BB7509E00123BB7506E0AF
:1016D0000223BB7503E00323BB7500E000BFBB7DA5
:1016E00018461837BD4680BD281400201815002064
:1016F0000038014080B582B000AF78607B681B681D
:101700001A46084B9A4200D007E0074B1B68002B93
:1017100002D0054B1B68984700BF00BF0837BD4685
:1017200080BD00BF003801402814002080B483B081
:1017300000AF7860074BD3F880207B68DB43054916
:101740001340C1F8803000BF0C37BD465DF8047B04
:10175000704700BF0008005880B483B000AF7860C5
:10176000074BD3F890207B68DB4305491340C1F851
:10177000903000BF0C37BD465DF8047B704700BF5A
:101780000008005880B483B000AF78604FF0B043D9
:101790000A4AC3F89C204FF0B043D3F89C3023F49E
:1017A0007C527B681B024FF0B0411343C1F89C3060
:1017B00000BF0C37BD465DF8047B7047FECAFECA09
:1017C00080B483B000AF78604FF0B043D3F890306E
:1017D00023F018024FF0B0417B681343C1F89030FA
:1017E00000BF0C37BD465DF8047B704780B400AF86
:1017F0004FF0B043D3F890304FF0B04243F4803311
:10180000C2F8903000BFBD465DF8047B704780B4DD
:1018100000AF4FF0B043D3F890304FF0B04223F414
:101820008033C2F8903000BFBD465DF8047B70473E
:1018300080B400AF4FF0B043D3F8943003F080632E
:10184000B3F1806F01D1012300E000231846BD46AB
:101850005DF8047B704780B400AF4FF0B043D3F81D
:10186000943003F08053B3F1805F01D1012300E095
:1018700000231846BD465DF8047B704780B485B0F0
:1018800000AF78604FF0B0439A6C4FF0B0417B6886
:1018900013438B644FF0B0439A6C7B681340FB603A
:1018A000FB6800BF1437BD465DF8047B704780B409
:1018B00085B000AF78604FF0B043DA6C4FF0B041C4
:1018C0007B681343CB644FF0B043DA6C7B68134002
:1018D000FB60FB6800BF1437BD465DF8047B7047B2
:1018E00080B485B000AF78604FF0B0431A6D4FF010
:1018F000B0417B6813430B654FF0B0431A6D7B68B2
:101900001340FB60FB6800BF1437BD465DF8047BE5
:10191000704780B483B000AF786039607B685A68E4
:101920003B681B041A437B685A6000BF0C37BD46F6
:101930005DF8047B704780B483B000AF7860396095
:101940007B685A683B681A437B685A6000BF0C3753
:10195000BD465DF8047B704780B483B000AF78600B
:1019600039607B685A693B681B041A437B685A617B
:1019700000BF0C37BD465DF8047B704780B483B070
:1019800000AF786039607B685A693B681A437B68AE
:101990005A6100BF0C37BD465DF8047B704780B4C8
:1019A00083B000AF786039607B683A689A6000BFA6
:1019B0000C37BD465DF8047B704780B483B000AF40
:1019C000786039607B683A689A6100BF0C37BD4621
:1019D0005DF8047B7047000080B400AF054B1B69C5
:1019E000044A23F00403136100BFBD465DF8047B85
:1019F000704700BF00ED00E080B483B000AF7860B6
:101A00007B68FF225A6200BF0C37BD465DF8047B3D
:101A1000704780B483B000AF78607B68CA225A6296
:101A20007B6853225A6200BF0C37BD465DF8047BC9
:101A3000704780B483B000AF786039607B689B6882
:101A400023F007023B681A437B689A6000BF0C379B
:101A5000BD465DF8047B704780B500AF03F08AF99E
:101A600000F067F900F051F900F014F800F046F9C1
:101A700000F0A1F900F035F900F016F900F0D8F8FF
:101A800000F0DEF8FEF7ECFE4FF0FF300AF046F80B
:101A9000FAE7000080B5AEB000AF07F1700348224E
:101AA000002118460AF07DFA07F1540300221A605B
:101AB0005A609A60DA601A615A619A613B1D50223D
:101AC000002118460AF06DFA04F062F80020FFF7D2
:101AD00077FE2F4B1B6823F4C0632D4A43F4007339
:101AE00013602B4B1B6803F4C0633B603B68072308
:101AF0003B674FF480337B670123BB674FF48073F0
:101B0000FB674023C7F880300023C7F89C3007F1FB
:101B10007003184604F0EEFB0346002B01D000F0E2
:101B20007AF96F237B650223BB650023FB650023E5
:101B30003B6600237B660023BB660023FB6607F140
:101B400054030121184604F069FF0346002B01D01D
:101B500000F061F943F603037B600023FB6100237F
:101B60003B624FF480737B644FF48043BB64022379
:101B7000FB6410233B653B1D184605F08AFB0346BA
:101B8000002B01D000F047F900BFB837BD4680BD3B
:101B90000004005880B500AF234B244A1A60224B42
:101BA0004FF4E1325A60204B00229A601E4B002213
:101BB000DA601D4B00221A611B4B0C225A611A4B32
:101BC00000229A61184B4FF40042DA61164B002252
:101BD0001A62154B00225A62134B00229A62124875
:101BE00005F021FF0346002B01D000F014F900217D
:101BF0000D4806F035FE0346002B01D000F00BF92E
:101C00000021094806F06AFE0346002B01D000F0CF
:101C100002F9054806F0EBFD0346002B01D000F069
:101C2000FAF800BF80BD00BF181500200038014041
:101C300080B400AF00BFBD465DF8047B7047000074
:101C400080B500AF164B174A1A60154B00225A6038
:101C5000134B0F229A60124B47F6FF72DA60104B5B
:101C600000221A610E4B00229A610D4B0022DA61AC
:101C70000B4B00225A610A4805F091FD0346002BE8
:101C800001D000F0C8F80748FFF7C3FE002105485F
:101C9000FFF7CFFE0348FFF7AFFE00BF80BD00BFD8
:101CA000A41500200028004080B500AF0420FFF7F5
:101CB000E5FD0220FFF7E2FD0120FFF7DFFD002236
:101CC0000F210E2003F02DFA0E2003F044FA00221B
:101CD0000F213A2003F025FA3A2003F03CFA00BF26
:101CE00080BD80B500AF0420FFF7E1FD0120FFF7C4
:101CF000DEFD0220FFF7DBFD00BF80BD80B400AF3A
:101D000000BFBD465DF8047B704780B582B000AF70
:101D1000002008F0DBFB78607B68002B05D07B6837
:101D20009B791846FFF72EFD00BF00BF0837BD4660
:101D300080BD80B500AF00F027F800F003F800BFC9
:101D400080BD000080B500AF4FF48010FFF7C8FDE4
:101D50003F210C48FFF723FE3F210A48FFF72DFEE5
:101D60003F210848FFF7D5FD3F210648FFF7F4FD66
:101D70003F210448FFF7DFFD3F210248FFF7FEFD4A
:101D800000BF80BD000C005880B500AFFFF750FDCC
:101D90000346002B0DD0FFF75EFD0346002B08D154
:101DA00003F0F6FE03F0F4FEFFF720FDFFF72FFD32
:101DB00000BF00BF80BD80B500AF4FF0FF30FFF720
:101DC000B5FC6FF05000FFF7C7FC00BF80BD80B5C9
:101DD00084B000AF786003F03BF8B8607B68FB60CC
:101DE000FB68B3F1FF3F0AD003F04AF803461A46F6
:101DF000FB681344FB6002E0FFF7EEFD30BF03F029
:101E000027F80246BB68D31AFA689A42F4D800BF92
:101E10001037BD4680BD80B400AF00BFBD465DF841
:101E2000047B704780B483B000AF78604FF0B0435C
:101E3000D3F8903023F440724FF0B0417B681343E5
:101E4000C1F8903000BF0C37BD465DF8047B704789
:101E500080B400AF4FF0B043D3F890304FF0B042B1
:101E600043F40043C2F8903000BFBD465DF8047BE8
:101E7000704780B485B000AF78604FF0B043DA6C43
:101E80004FF0B0417B681343CB644FF0B043DA6C42
:101E90007B681340FB60FB6800BF1437BD465DF8EC
:101EA000047B704780B485B000AF78604FF0B043DA
:101EB0001A6D4FF0B0417B6813430B654FF0B04390
:101EC0001A6D7B681340FB60FB6800BF1437BD468A
:101ED0005DF8047B704780B485B000AF78604FF048
:101EE000B0439A6D4FF0B0417B6813438B654FF060
:101EF000B0439A6D7B681340FB60FB6800BF1437EA
:101F0000BD465DF8047B704780B485B000AF786053
:101F10004FF0B043DA6D4FF0B0417B681343CB65AF
:101F20004FF0B043DA6D7B681340FB60FB6800BF85
:101F30001437BD465DF8047B704780B485B000AFB0
:101F400078604FF0B0431A6E4FF0B0417B68134396
:101F50000B664FF0B0431A6E7B681340FB60FB6862
:101F600000BF1437BD465DF8047B704780B500AFF5
:101F70004FF40020FFF796FF002200212E2003F0EF
:101F8000D0F82E2003F0E7F800BF80BD80B58CB0FC
:101F900000AF786007F11C0300221A605A609A6053
:101FA000DA601A617B681B686C4A93426FD101202A
:101FB000FFF7AAFF0120FFF75CFF0C23FB61022360
:101FC0003B6200237B620323BB620823FB6207F1B1
:101FD0001C0319464FF0904003F016FC4023FB61B0
:101FE00002233B6200237B620023BB620823FB6267
:101FF00007F11C0319464FF0904003F005FC584BC5
:10200000584A1A60564B11225A60554B10229A605A
:10201000534B0022DA60524B80221A61504B00224F
:102020005A614F4B00229A614D4B0022DA614C4BB2
:1020300000221A624A4803F0D3F80346002B01D06D
:10204000FFF7E9FE4FF08853FB6000233B6100235C
:102050003B7500237B750123BB6107F10C03194617
:102060003F4803F091FB0346002B01D0FFF7D3FE5E
:102070007B683B4A5A673A4A7B6893620022002198
:10208000252003F04EF8252003F065F861E07B6819
:102090001B68354A93425CD14FF48040FFF74DFFF7
:1020A0000120FFF7E6FE0220FFF7E3FE4FF4006396
:1020B000FB6102233B6200237B620023BB62072398
:1020C000FB6207F11C0319464FF0904003F09CFBA4
:1020D000C023FB6102233B6201237B620323BB62BB
:1020E0000723FB6207F11C031946204803F08CFB11
:1020F0001F4B204A1A601E4B0F225A601C4B1022A5
:102100009A601B4B0022DA60194B80221A61184B2F
:1021100000225A61164B00229A61154B0022DA61A7
:10212000134B00221A62124803F05AF80346002BA0
:1021300001D0FFF770FE7B680D4A5A670C4A7B6836
:10214000936200220021242002F0EBFF242003F000
:1021500002F800BF3037BD4680BD00BF00800040A0
:10216000C815002044000240003801400004004827
:10217000B81400204404024080B582B000AF7860FB
:102180007B681B680B4A934210D103F001FD03F0FA
:10219000FFFC4FF48070FFF745FEFFF759FE4FF448
:1021A0008060FFF798FE786805F0E7FB00BF08370E
:1021B000BD4680BD0028004080B400AF00BFBD46D2
:1021C0005DF8047B704780B400AFFEE780B400AFD9
:1021D000FEE780B400AFFEE780B400AFFEE780B456
:1021E00000AF00BFBD465DF8047B704780B400AF10
:1021F00000BFBD465DF8047B704780B400AF00BFF0
:10220000BD465DF8047B704780B500AF02F00CFE60
:1022100000BF80BD80B500AF024803F063F900BF86
:1022200080BD00BFC815002080B500AF024805F092
:10223000CBFC00BF80BD00BF1815002080B500AFEB
:10224000024805F0C1FC00BF80BD00BF2C14002077
:1022500080B500AF03F078FC00BF80BD80B500AF53
:10226000024803F03FF900BF80BD00BFB814002052
:1022700080B500AF102003F04FFC00BF80BD80B5DB
:1022800000AFFEF723FF00BF80BD80B500AF02F0B6
:1022900047FA00BF80BD80B500AF02F009FA00BF69
:1022A00080BD80B586B000AFF860B9607A60002369
:1022B0007B610AE0AFF300800146BB685A1CBA603C
:1022C000CAB21A707B6901337B617A697B689A4272
:1022D000F0DB7B6818461837BD4680BD80B483B0FC
:1022E00000AF78604FF0FF3318460C37BD465DF8FD
:1022F000047B704780B483B000AF786039603B687E
:102300004FF400525A60002318460C37BD465DF862
:10231000047B704780B483B000AF78600123184617
:102320000C37BD465DF8047B704780B485B000AFC4
:10233000F860B9607A60002318461437BD465DF82E
:10234000047B704780B584B000AF7860114B1B6888
:10235000002B02D10F4B104A1A600E4B1B68FB601A
:102360000C4B1A687B6813446A46934207D909F0FC
:10237000E3FD02460C2313604FF0FF3306E0054BEC
:102380001A687B681344034A1360FB6818461037C9
:10239000BD4680BDD80200207016002080B400AF7A
:1023A000034B1B681846BD465DF8047B704700BFB1
:1023B0008075FF1F80B400AF034B1B68DBB218466B
:1023C000BD465DF8047B70478475FF1F80B400AF85
:1023D000034B1B681B0A1846BD465DF8047B70471B
:1023E0008475FF1FB0B58CB000AF424B3C461D4614
:1023F0000FCD0FC40FCD0FC495E80F0007C4237095
:1024000000F0BAFE0121022009F05AFB3A4A0021ED
:102410004FF4007009F062FC3B46184608F0A2F940
:1024200000F0C0FE09F018F8344A0021022009F03B
:1024300055FC334A0021042009F050FC314A0021A8
:10244000012009F04BFC304A0021082009F046FC2D
:102450002E4A0021102009F041FC2D4A00212020A5
:1024600009F03CFC2B4A0021402009F037FC2A4AA5
:102470000021802009F032FC284B002283F89C20A8
:10248000264B002283F89D20244B002283F8B220A3
:10249000224B002283F89E20204B002283F89F20AD
:1024A0001E4B002283F8A0201C4B002283F8A120A1
:1024B0001A4B002283F8A220184B002283F8B32085
:1024C000164B002283F8B420144B002283F8B52069
:1024D000124B002283F8B620104B002283F8B7205D
:1024E00001F00AFC0021012009F018FC00BF303780
:1024F000BD46B0BD0CCF000899A1000869330008A3
:1025000091340008F53300081135000891350008B2
:1025100011360008913600081137000848010020E4
:10252000F0B59BB006AF78607B680133FB63002396
:10253000FB64FB6B0233BB63FB6B1B783E2B00F031
:10254000BF81FF2B04D0052B00F0E48000F091BD8B
:102550006B4B01221A70FB6B02337B637B6B1B8816
:102560009BB240F20742934204D040F602029342EB
:102570006ED0C2E07B6B0233BB62BB6A1B78022B5E
:1025800040F0B780BB6A5B78002B40F0B28000203F
:1025900002F04CFA5B4809F095FD5B4B93F8B230C2
:1025A000012B09D1584B93F89D30052B04D0002105
:1025B000042009F0B3FB4AE0534B93F8B330012BEE
:1025C00009D1514B93F89E30052B04D000210820EF
:1025D00009F0A4FB3BE04C4B93F8B430012B09D13C
:1025E000494B93F89F30052B04D00021102009F0AF
:1025F00095FB2CE0444B93F8B530012B09D1424BAD
:1026000093F8A030052B04D00021202009F086FB90
:102610001DE03D4B93F8B630012B09D13A4B93F8AE
:10262000A130052B04D00021402009F077FB0EE0FB
:10263000354B93F8B730012B5BD1334B93F8A23075
:10264000052B56D00021802009F068FB51E050E0B6
:102650007B6B02333B633B6B1B889AB22B4B1A801C
:102660003B6B9A78294B9A703B6BB3F803309AB264
:10267000264B9A803B6BB3F805309AB2234BDA8035
:102680003B6BB3F807309AB2204B1A813B6BB3F81F
:1026900009309AB21D4B5A813B6BB3F80B309AB29A
:1026A0001A4B9A81194B1888184BDC88174B1D89D7
:1026B000164B5E89154B9B89144A92780021049130
:1026C00003921022029210220192009333462A466E
:1026D000214607F015FB034687F82F300C4809F018
:1026E000F1FC97F82F30002B06D0022002F084F97D
:1026F00002E000BF00F0BDBC00BF00F0BABC00BFEC
:10270000301600203CCF00084801002000020020C5
:102710006CCF0008BB6BB3F801309AB2804BB3F8B2
:10272000A6309A4215D17F4809F0CCFC7C4B0022A0
:1027300083F89D207A4B4FF6FF72A3F8A6207A4BC0
:1027400001221A70794B1A88774B5A80764801F02B
:102750001FF8BB6BB3F801309AB2714BB3F8A430D9
:102760009A4210D1724809F0ADFC6D4B0022A3F8DB
:10277000A4206D4B03221A706B4B4FF6FF725A80E8
:10278000694801F005F8BB6BB3F801309AB2644BAD
:10279000B3F8A8309A4215D1664809F093FC604B13
:1027A000002283F89E205E4B4FF6FF72A3F8A8200C
:1027B0005D4B09221A705D4B1A885B4B5A805A4850
:1027C00000F0E6FFBB6BB3F801309AB2544BB3F89C
:1027D000AA309A4215D1584809F074FC504B002297
:1027E00083F89F204E4B4FF6FF72A3F8AA204E4B62
:1027F0000A221A704D4B1A884B4B5A804A4800F0F7
:10280000C7FFBB6BB3F801309AB2454BB3F8AC309D
:102810009A4215D1494809F055FC414B002283F8F2
:10282000A0203F4B4FF6FF72A3F8AC203E4B0B228B
:102830001A703E4B1A883C4B5A803B4800F0A8FF68
:10284000BB6BB3F801309AB2354BB3F8AE309A4255
:1028500015D13B4809F036FC314B002283F8A1200A
:102860002F4B4FF6FF72A3F8AE202F4B0C221A709D
:102870002E4B1A882C4B5A802B4800F089FFBB6BDB
:10288000B3F801309AB2264BB3F8B0309A4240F018
:10289000EF832C4809F016FC214B002283F8A2207C
:1028A0001F4B4FF6FF72A3F8B0201F4B0D221A707A
:1028B0001E4B1A881C4B5A801B4800F069FFD7E357
:1028C000FB6B02337B627B6A1B78012B03D0022BEC
:1028D00000F07A82CDE37B6A01333B613B69B3F858
:1028E00001309AB2114B1A803B69DB78FB73FB7B9A
:1028F000002B40F05682012387F84B30012387F8E4
:102900004A30012387F84930012387F848300123F2
:1029100087F84730012387F8463000233B6494E072
:102920004801002080CF0008301600204216002009
:10293000ACCF0008D8CF000804D0000830D0000881
:102940005CD0000888D000089B4A3B6C13441A787E
:1029500039693B6C0B4405331B789A420CBF012349
:102960000023DBB25AB297F94B3013405BB287F8C1
:102970004B30924A3B6C13441A7839693B6C0B44D8
:1029800005331B789A420CBF01230023DBB25AB2F5
:1029900097F94A3013405BB287F84A30884A3B6C5B
:1029A00013441A7839693B6C0B4405331B789A42FF
:1029B0000CBF01230023DBB25AB297F94930134010
:1029C0005BB287F849307F4A3B6C13441A78396907
:1029D0003B6C0B4405331B789A420CBF0123002348
:1029E000DBB25AB297F9483013405BB287F84830EF
:1029F000754A3B6C13441A7839693B6C0B440533B8
:102A00001B789A420CBF01230023DBB25AB297F91C
:102A1000473013405BB287F847306C4A3B6C134435
:102A20001A7839693B6C0B4405331B789A420CBF0A
:102A300001230023DBB25AB297F9463013405BB250
:102A400087F846303B6C01333B643B6C052B7FF7CA
:102A50007BAF97F84B30012B3ED15D4809F032FB3C
:102A60005C4B052283F89D205B4B1A88594BA3F8D9
:102A7000A620594B1A88574BDA84584B00221A70FB
:102A8000554B1A88554B5A80544800F081FE514BE3
:102A9000B3F8A630184606F024FE034687F82F3018
:102AA00097F82F30002B06D14D4809F00BFB4D480D
:102AB00009F080FA02E04C4809F07CFA454B93F8A3
:102AC0009E30052B08D0434B93F8B330012B03D134
:102AD0000021082009F022F997F84A30012B3BD158
:102AE000424809F0EFFA3B4B052283F89E203A4B0F
:102AF0001A88384BA3F8A820374B1A88354B1A850B
:102B0000364B04221A70344B1A88344B5A8033489F
:102B100000F03EFE2F4BB3F8A830184606F0E1FD5A
:102B2000034687F82F3097F82F30002B03D1304819
:102B300009F040FA02E02C4809F03CFA254B93F8E2
:102B40009D30052B08D0234B93F8B230012B03D1D5
:102B50000021042009F0E2F897F84930012B5CD1FC
:102B6000244809F0AFFA1B4B052283F89F201A4B2B
:102B70001A88184BA3F8AA20174B1A88154B5A85A8
:102B8000164B05221A70144B1A88144B5A8013489E
:102B900000F0FEFD0F4BB3F8AA30184606F0A1FD79
:102BA000034687F82F3097F82F30002B24D1104898
:102BB00009F000FA23E000BF441600204C16002064
:102BC000541600203C1600205C1600202816002019
:102BD000B4D0000848010020421600203016002022
:102BE000DCD0000810D1000840D1000880D10008D6
:102BF000A8D10008D8D10008B34809F0DBF9B34BDD
:102C000093F8A030052B08D0B04B93F8B530012BCA
:102C100003D10021202009F081F897F84830012BDA
:102C20003BD1AB4809F04EFAA84B052283F8A0200F
:102C3000A84B1A88A54BA3F8AC20A64B1A88A34B27
:102C40009A85A54B06221A70A24B1A88A24B5A806D
:102C5000A14800F09DFD9D4BB3F8AC30184606F03E
:102C600040FD034687F82F3097F82F30002B03D113
:102C70009A4809F09FF902E0934809F09BF9934BB9
:102C800093F89F30052B08D0904B93F8B430012B6C
:102C900003D10021102009F041F897F84730012BAB
:102CA0003BD18F4809F00EFA884B052283F8A1200A
:102CB000884B1A88854BA3F8AE20864B1A88834B25
:102CC000DA85854B07221A70824B1A88824B5A800C
:102CD000814800F05DFD7D4BB3F8AE30184606F03C
:102CE00000FD034687F82F3097F82F30002B03D1D3
:102CF0007A4809F05FF902E0734809F05BF9734B19
:102D000093F8A230052B08D0704B93F8B730012B05
:102D100003D10021802009F001F897F84630012BFB
:102D200040F0A2816F4809F0CDF9684B052283F885
:102D3000A220684B1A88654BA3F8B020654B1A880F
:102D4000624B1A86644B08221A70624B1A88624BD7
:102D50005A80614800F01CFD5C4BB3F8B030184657
:102D600006F0BFFC034687F82F3097F82F30002B72
:102D700003D15A4809F01EF902E0534809F01AF944
:102D8000524B93F8A130052B00F06E814F4B93F816
:102D9000B630012B40F068810021402008F0BEFFD2
:102DA00062E1514809F08EF94A4B1A88474BA3F863
:102DB000A420494B02221A70464B1A88464B5A806F
:102DC000454800F0E5FC4FE17B6A01333B623B6A1A
:102DD0005B78FB773B6A5B7ABB773B6A09330133ED
:102DE000BB610023FB64FB7F002B40F03F8135E19A
:102DF000FB6CBA6913441B78FB75FB6C0133BA6931
:102E000013441B78BB75BB7D092B00F01981092B7E
:102E100006DC012B00F01681022B00F0158118E171
:102E2000162B00F01381FF2B03D00A2B00F010812A
:102E30000FE1FB7D062B40F2FF80FB6C0233BA6989
:102E400013441B78012B40F0F780284809F03AF929
:102E5000FB6C0333BA6913441B78833B072B00F2E6
:102E6000ED8001A252F823F0892E0008F92E000807
:102E70003D3000083D300008392F0008792F000848
:102E8000B92F0008F92F0008194809F01BF90F4B5A
:102E9000012283F8B2203B6ADA78164B1A703B6A3B
:102EA0001A79144B5A703B6A5A79124B9A703B6AE2
:102EB0009A79104BDA703B6ADA790E4B1A713B6AD9
:102EC0001A7A0C4B5A71BAE040D100084801002030
:102ED00000D200084216002030160020A8D10008B9
:102EE00028D2000850D2000878D20008A0D20008EA
:102EF000BCD2000844160020604B012283F8B320A6
:102F00005F4809F0DFF83B6ADA785E4B1A703B6A7B
:102F10001A795C4B5A703B6A5A795A4B9A703B6AE1
:102F20009A79584BDA703B6ADA79564B1A713B6AD8
:102F30001A7A544B5A7182E0534809F0C3F84F4B48
:102F4000012283F8B4203B6ADA78504B1A703B6A4E
:102F50001A794E4B5A703B6A5A794C4B9A703B6ABD
:102F60009A794A4BDA703B6ADA79484B1A713B6AB4
:102F70001A7A464B5A7162E0404B012283F8B52021
:102F8000434809F09FF83B6ADA78424B1A703B6A73
:102F90001A79404B5A703B6A5A793E4B9A703B6A99
:102FA0009A793C4BDA703B6ADA793A4B1A713B6A90
:102FB0001A7A384B5A7142E0374809F083F82F4BA0
:102FC000012283F8B6203B6ADA78344B1A703B6AE8
:102FD0001A79324B5A703B6A5A79304B9A703B6A75
:102FE0009A792E4BDA703B6ADA792C4B1A713B6A6C
:102FF0001A7A2A4B5A7122E0204B012283F8B7201B
:10300000274809F05FF83B6ADA78264B1A703B6A6A
:103010001A79244B5A703B6A5A79224B9A703B6A50
:103020009A79204BDA703B6ADA791E4B1A713B6A47
:103030001A7A1C4B5A7102E000BF0AE000BF08E098
:1030400000BF06E000BF04E000BF02E000BF00E0F8
:1030500000BFFB7D0133FA6C1344FB64BB7FFA6C49
:103060009A42FFF6C5AE01E000BF02E000BF00E0FB
:1030700000BF012318465437BD46F0BD480100206B
:10308000E4D200084C1600200CD30008541600208F
:1030900034D300083C1600205CD300085C160020E6
:1030A00084D300082816002080B485B000AF034602
:1030B000FB80254BB3F8A630FA889A4204D1224B04
:1030C00093F89D30FB7338E01F4BB3F8A830FA88B3
:1030D0009A4204D11C4B93F89E30FB732DE01A4B9F
:1030E000B3F8AA30FA889A4204D1174B93F89F306C
:1030F000FB7322E0144BB3F8AC30FA889A4204D147
:10310000114B93F8A030FB7317E00F4BB3F8AE30C0
:10311000FA889A4204D10C4B93F8A130FB730CE06F
:10312000094BB3F8B030FA889A4204D1064B93F8B1
:10313000A230FB7301E00023FB73FB7B18461437BE
:10314000BD465DF8047B70474801002080B500AFA4
:103150000021022008F0E2FD00BF80BD80B400AF76
:1031600000BFBD465DF8047B704780B400AF00BF70
:10317000BD465DF8047B704780B582B000AF064B5A
:103180003B60064B7B603B461946054806F0E8FF6E
:1031900000BF0837BD4680BD28000320F73900086E
:1031A000BF390008F0B591B006AF0023BB8006F030
:1031B00083FD00F09DFB38623A6A0621002006F08C
:1031C000BBFC3B6A5A79624B1A723B6A1A79604BB4
:1031D0005A723B6ADA785E4B9A723B6A9A785C4B19
:1031E000DA723B6A5A785A4B1A733B6A1A78584B10
:1031F0005A73584A1021182006F09EFC564A102196
:10320000082006F099FC4EF66E53FB60FFF7C6F8F7
:103210000346BB6007F108031A4606212E2006F07C
:103220008BFC4C4A1021182006F086FC4A4A1021DB
:10323000082006F081FC1821012006F0E6FC06F0CB
:103240000BF80023FB77FB7F43F00103FB77FB7F49
:1032500043F00403FB77FB7F002B1ED03F4BBB6189
:1032600007F11602F87F07F11203019307F1140327
:10327000009313460722002105F0A6FDFC8ABD8AB3
:10328000B869FCF77DFF0346DAB2BB6900931346C9
:1032900000222946204606F09DF9F88A798A3B1DCE
:1032A00000930223002206F095F92D4B03221A7099
:1032B0002B4B1B78184605F095FC294B01225A70C0
:1032C000274B0022DA70264B08225A75244B102215
:1032D0009A75234B01221A75214B224A9A61204B81
:1032E00001229A70002387F827300BE097F82730E7
:1032F0001B4A134497F827201A7197F82730013397
:1033000087F8273097F827300F2BEFD9144B9D788B
:10331000134B5E78124B5B7D114A927D1049097DFB
:103320000F48806900240494039002910192009355
:10333000002301223146284605F09EFC084B9B786D
:10334000002B01D005F027FE00BF2C37BD46F0BD95
:103350000C00002058DB000868DB0008ACD3000834
:103360004801002007B2010080B582B000AF1E4BBB
:1033700093F89D30052B18D11B4B93F89E30052BED
:1033800013D1194B93F89F30052B0ED1164B93F8A0
:10339000A030052B09D1144B93F8A130052B04D193
:1033A000114B93F8A230052B1AD0002001F024FB1A
:1033B000012300224FF448714FF4487005F00FFECE
:1033C0000346FB71FB79002B03D1084808F0F2FD9E
:1033D00006E0022001F010FB054808F0EBFD00BFFD
:1033E00000BF0837BD4680BD48010020B4D30008A7
:1033F000E4D3000880B58AB008AF1F4B93F89C3027
:10340000052B34D00023FB71002306930023059382
:103410000023049300230393184B02930723019383
:103420000023009300234FF47A724FF4FD710020C3
:1034300005F0FAFA0346FB7111490E2005F04FFD25
:103440000346FB710C4B012283F89C20FB79002B77
:1034500006D10C4808F0AEFD0B4808F0ABFD06E0C5
:10346000022001F0C9FA094808F0A4FD00BF00BF1E
:103470000837BD4680BD00BF480100200400002081
:103480000C00002014D400081CD400083CD4000810
:1034900080B58AB008AF1B4808F08CFD1A4B93F832
:1034A0009D30052B29D010230693102305934FF44C
:1034B000C8730493002303934FF448730293A0232B
:1034C000019300230093114B00224FF448714FF4F5
:1034D000487005F0FCFD0346FB71FB79002B04D11D
:1034E000094B042283F89D2007E0022001F084FAB2
:1034F000054B002283F89D2000BF00BF0837BD4662
:1035000080BD00BF60D400084801002044160020A0
:1035100080B58AB008AF1B4808F04CFD1A4B93F8F1
:103520009E30052B29D010230693102305934FF4CA
:10353000C8730493002303934FF448730293A023AA
:10354000019300230093114B00224FF448714FF474
:10355000487005F0BCFD0346FB71FB79002B04D1DC
:10356000094B042283F89E2007E0022001F044FA70
:10357000054B002283F89E2000BF00BF0837BD46E0
:1035800080BD00BF90D40008480100204C160020E8
:1035900080B58AB008AF1B4808F00CFD1A4B93F8B1
:1035A0009F30052B29D010230693102305934FF449
:1035B000C8730493002303934FF448730293A0232A
:1035C000019300230093114B00224FF448714FF4F4
:1035D000487005F07CFD0346FB71FB79002B04D19C
:1035E000094B042283F89F2007E0022001F004FA2F
:1035F000054B002283F89F2000BF00BF0837BD465F
:1036000080BD00BFC0D4000848010020541600202F
:1036100080B58AB008AF1B4808F0CCFC1A4B93F871
:10362000A030052B29D010230693102305934FF4C7
:10363000C8730493002303934FF448730293A023A9
:10364000019300230093114B00224FF448714FF473
:10365000487005F03CFD0346FB71FB79002B04D15B
:10366000094B042283F8A02007E0022001F0C4F9EE
:10367000054B002283F8A02000BF00BF0837BD46DD
:1036800080BD00BFF0D40008480100203C16002097
:1036900080B58AB008AF1B4808F08CFC1A4B93F831
:1036A000A130052B29D010230693102305934FF446
:1036B000C8730493002303934FF448730293A02329
:1036C000019300230093114B00224FF448714FF4F3
:1036D000487005F0FCFC0346FB71FB79002B04D11C
:1036E000094B042283F8A12007E0022001F084F9AD
:1036F000054B002283F8A12000BF00BF0837BD465C
:1037000080BD00BF20D50008480100205C160020C5
:1037100080B58AB008AF1B4808F04CFC1A4B93F8F0
:10372000A230052B29D010230693102305934FF4C4
:10373000C8730493002303934FF448730293A023A8
:10374000019300230093114B00224FF448714FF472
:10375000487005F0BCFC0346FB71FB79002B04D1DB
:10376000094B042283F8A22007E0022001F044F96B
:10377000054B002283F8A22000BF00BF0837BD46DA
:1037800080BD00BF50D50008480100202816002049
:1037900080B584B000AF786007F1080300221A609A
:1037A0009A807B681B780D2B00F29D8001A252F855
:1037B00023F000BFED370008FD370008E7380008A8
:1037C000153800081F3800082F3800083F38000857
:1037D0004F3800085F3800086F3800088738000845
:1037E0009F380008B7380008CF38000881233B72A3
:1037F00007F10803184600F0C5F975E080233B7215
:1038000007F10803184600F0BDF90021042008F074
:1038100085FA69E00021012008F080FA64E0812344
:103820007B7207F10803184600F0ACF95CE08123D5
:10383000BB7207F10803184600F0A4F954E0812395
:10384000FB7207F10803184600F09CF94CE0812355
:103850003B7307F10803184600F094F944E0812314
:103860007B7307F10803184600F08CF93CE08023D5
:103870007B7207F10803184600F084F90021082044
:1038800008F04CFA30E08023BB7207F108031846B9
:1038900000F078F90021102008F040FA24E080239D
:1038A000FB7207F10803184600F06CF90021202094
:1038B00008F034FA18E080233B7307F10803184638
:1038C00000F060F90021402008F028FA0CE0802385
:1038D0007B7307F10803184600F054F9002180209B
:1038E00008F01CFA00E000BF00BF1037BD4680BDE5
:1038F00080B586B000AFFEF751FD38613B69B3F18A
:10390000FF3F23D0FEF762FDB860FEF753FD7860FD
:103910003B69DAB2164B1A703B691B0ADAB2144BD8
:103920005A703B691B0CDAB2114B9A707B68DAB2A1
:103930000F4BDA70BB68DAB20D4B1A71BB681B0A09
:10394000DAB20B4B5A710A4B7B610BE0002006F098
:10395000BDFDF860FB68002B02D0FB687B6101E0D5
:10396000044B7B617B6918461837BD4680BD00BF9C
:10397000DC02002050DB000880B582B000AF786028
:1039800000214FF4007008F0C9F900BF0837BD46A8
:1039900080BD80B582B000AF7860012008F024FAC5
:1039A00000BF0837BD4680BD80B582B000AF7860EB
:1039B000012008F037FA00BF0837BD4680BD80B54A
:1039C00084B000AF78607B68FB60FB685B6808339D
:1039D000184607F0A9FD0346FB72FB7A002B03D0C3
:1039E000FB6801221A7002E0FB6800221A7000BF17
:1039F0001037BD4680BD80B584B000AF0346FB7173
:103A0000FB79002B02D0012B07D00DE040F2FF33F1
:103A1000FB60F86808F0ACF906E040F2FF33FB60A9
:103A2000F86808F0C3F900BF00BF1037BD4680BD7D
:103A300080B582B000AF78607B681B78002B09D01E
:103A4000012B00D00DE0094808F03CFB084B012297
:103A50005A7006E0074808F035FB054B00225A7003
:103A600000BF00BF0837BD4680BD00BF80D500083D
:103A700040020020BCD5000880B582B000AF78605D
:103A80007B681B78032B31D801A252F823F000BFCA
:103A9000A13A0008AF3A0008BD3A0008C53A00084C
:103AA000154808F087FA154B01221A701FE01448D8
:103AB00008F080FA114B00221A7018E0114808F043
:103AC00079FA14E0104808F075FA7B685B681A7898
:103AD0000A4B9A727B685B685A78084BDA720B4A19
:103AE000002142F6503000F0DBF900E000BF00BFDB
:103AF0000837BD4680BD00BFF8D500084002002051
:103B000030D6000868D6000894D600084A02002083
:103B100080B582B000AF194A00214FF4807008F0E0
:103B2000DDF8174B00221A70154B00225A70144B07
:103B300000229A7080233B70114B0022DA70104BE8
:103B400000221A710E4B00225A710D4B00229A71FD
:103B50000B4B0022DA7180237B708023BB708023A3
:103B6000FB7080233B7180237B713B46184600F03D
:103B700009F800BF0837BD4680BD00BF093D0008F9
:103B80004002002080B582B000AF78607B681B786F
:103B90005BB2002B06DA7B681B7803F07F03DAB296
:103BA000234B9A707B685B785BB2002B06DA7B68EC
:103BB0005B7803F07F03DAB21D4BDA707B689B7889
:103BC0005BB2002B06DA7B689B7803F07F03DAB2E6
:103BD000174B1A717B68DB785BB2002B06DA7B68C7
:103BE000DB7803F07F03DAB2114B5A717B681B79E3
:103BF0005BB2002B06DA7B681B7903F07F03DAB235
:103C00000B4B9A717B685B795BB2002B06DA7B68A1
:103C10005B7903F07F03DAB2054BDA71054942F6AE
:103C2000603006F07BFA00BF0837BD4680BD00BF9C
:103C3000400200204202002080B582B000AF7860D0
:103C40007B681B78022B00D024E0144B1B78002BE0
:103C500019D07B685B681B781946114808F0AAF9EF
:103C6000104808F0A7F97B685B685A780B4B5A72CA
:103C70007B685B681A78094B1A720B494FF64260F1
:103C800006F04EFD05E0094808F094F9054808F0F3
:103C900091F900BF00BF0837BD4680BD400200203B
:103CA000D4D6000814D70008480200201CD700080A
:103CB00080B582B000AF0023FB710023FB7108E0E8
:103CC000FB790A4A1B01134400221A70FB79013365
:103CD000FB71FB79022BF3D9054807F00BFC054873
:103CE00008F0F0F900BF0837BD4680BD1002002083
:103CF000153F000870D7000880B500AFFFF708FF38
:103D0000FFF7D6FF00BF80BD80B582B000AF0123B2
:103D1000BB800023FB71A4E0FB795A4A1B011344CA
:103D20001B78063B062B00F2988001A252F823F084
:103D3000ED3D0008F53D00084D3D0008833D0008BD
:103D40005B3E0008B93D0008273E00084E4808F0D9
:103D5000B9F9FB794B4A1B01134402331888FB79EC
:103D6000484A1B01134408331988FB79454A1B0153
:103D7000134408331B8802339BB21A4605F06AFDD0
:103D80006CE0424808F09EF9FB793E4A1B0113445F
:103D900002331888FB793B4A1B0113440C33198802
:103DA000FB79384A1B0113440C331B8802339BB246
:103DB0001A4605F04FFD51E0354808F083F9FB79CC
:103DC000304A1B01134402331888FB792D4A1B012A
:103DD00013440E3319883B1D022205F0A6FDFB7922
:103DE000284A1B01134405221A7037E0294808F0BD
:103DF00069F933E0284808F065F9FB79214A1B018D
:103E0000134402331888FB791E4A1B011344043300
:103E10001988FB791B4A1B01134406331B881A4679
:103E200005F0ADFC1AE01D4808F04CF9FB79154A85
:103E30001B01134402331888FB79124A1B011344F7
:103E40000E3319883B1D022205F06FFDFB790D4AE8
:103E50001B01134405221A7000E000BFFB790133F7
:103E6000FB71FB79022B08D8FB79064A1B0113442E
:103E70001B78002B7FF450AF00BF00BF0837BD4652
:103E800080BD00BF1002002094D70008C8D70008EA
:103E900000D8000824D8000840D8000870D80008CE
:103EA00080B584B000AF03463A60FB800B467B715F
:103EB0004223FB730023BB731BE0FB8842F65032A6
:103EC000934200D012E0BB7B114A1B011344023322
:103ED0001888BB7B0E4A1B011344083319883B68C2
:103EE000022205F0A7FD0346FB7300BFBB7B013335
:103EF000BB73BB7B022B06D8BB7B054A1B0113445B
:103F00001B78002BD9D1FB7B18461037BD4680BDEE
:103F10001002002080B596B000AF7860002387F8CB
:103F20004D307B680133BB64BB6C1B78FF2B00D02A
:103F3000C2E2BB6C02337B647B6C1B889BB2A3F632
:103F400004430C2B00F2AC8201A252F823F000BF14
:103F500085420008A14400083B410008A144000834
:103F6000A1440008A1440008853F0008A1440008BE
:103F7000A1440008A1440008A1440008B743000878
:103F8000494400087B6C0233BB63BB6B1A785B78D7
:103F90001B021343FB86002387F855302EE097F869
:103FA0005530BC4A1B01134402331B881846FFF7E7
:103FB0007BF8034687F8353097F85530B54A1B0132
:103FC00013441B78052B14D197F83530002B10D1F2
:103FD00097F85530AF4A1B01134400221A7097F826
:103FE0005530AC4A1B01134402334FF6FF721A805E
:103FF00010E097F85530013387F8553097F8553071
:10400000022B07D897F85530A24A1B0113441B789E
:10401000002BC4D197F85530022B00F2438297F859
:1040200055309C4A1B0113440233FA8E1A80BB6B35
:10403000DA78BB6B9B78B2FBF3F387F83430BB6B59
:104040009B78142B40F02E82102387F856300023E3
:1040500087F857306AE097F85630BA6B13441B79EB
:104060009AB297F85630B96B0B44043301331B787E
:104070009BB21B029BB213437B867B8E4FF6406242
:10408000934249D197F85530824A1B0113440233B9
:104090001B881946804807F08DFF97F85630103B73
:1040A000BA6B13441B7999B297F85630103BBA6B30
:1040B0001344043301331B789BB21B029AB297F866
:1040C00055300A4391B2734A1B01134404330A4624
:1040D0001A8097F856300E3BBA6B13441B7999B28D
:1040E00097F856300E3BBA6B1344043301331B78F8
:1040F0009BB21B029AB297F855300A4391B2654AB7
:104100001B01134406330A461A8097F85530614A5A
:104110001B01134407221A7097F85630063387F8AC
:10412000563097F85730013387F8573097F85720B3
:1041300097F834309A428ED3B4E17B6C0233FB6241
:10414000002387F8533004E097F85330013387F8A1
:10415000533097F85330022B0BD897F853304D4A11
:104160001B01134402331A88FB6A1B889BB29A42D4
:10417000EAD197F85330022B00F29681112387F889
:104180005430FB6A9B78152B40F08E81FB6ADB78FC
:10419000013BDAB2FB6ADA706FE097F85430FA6AE2
:1041A00013441B799AB297F85430F96A0B440433DC
:1041B00001331B789BB21B029BB213437B8597F89C
:1041C00054300E3BFA6A13441B799AB297F8543074
:1041D0000E3BF96A0B44043301331B789BB21B027C
:1041E0009BB213433B857B8D4FF6416293421AD1BC
:1041F00097F85330274A1B01134402331B88194692
:10420000264807F0D7FE97F85330224A1B01134483
:1042100008221A7097F853301E4A1B0113440833C2
:104220003A8D1A801EE07B8D4FF64262934219D17F
:1042300097F85330174A1B01134402331B88194661
:10424000174807F0B7FE97F85330124A1B01134482
:1042500009221A7097F853300E4A1B0113440C338D
:104260003A8D1A80FB6ADB78153BDAB2FB6ADA70AA
:1042700097F85430153387F85430FB6ADB78002BFD
:104280008BD111E17B6C02337B62002387F85030C5
:104290000DE000BF1002002098D80008D4D8000814
:1042A0000CD9000897F85030013387F8503097F850
:1042B0005030022B0BD897F85030824A1B01134420
:1042C00002331A887B6A1B889BB29A42EAD197F81C
:1042D0005030022B00F2EA807B6ADB789B0887F87B
:1042E0002330002387F852307B6A9B78012B40F003
:1042F000DD80002387F8513056E097F852307A6A13
:1043000013441B799AB297F85230796A0B440433FC
:1043100001331B789BB21B029BB213433B8497F87B
:10432000523002337A6A13441B799AB297F85230AA
:104330000233796A0B44043301331B789BB21B02AE
:104340009BB21343FB83FB8B42F60212934221D1B3
:1043500097F850305B4A1B01134402331B881946FF
:10436000594807F027FE97F85030564A1B0113446E
:104370001B78092B0ED197F85030524A1B01134479
:104380000E333A8C1A8097F850304E4A1B01134472
:104390000B221A7097F85230043387F8523097F88E
:1043A0005130013387F8513097F8512097F8233076
:1043B0009A42A2D37AE07B6C0233FB63002387F836
:1043C0004F3004E097F84F30013387F84F3097F8BB
:1043D0004F30022B0BD897F84F303A4A1B01134449
:1043E00002331A88FB6B1B889BB29A42EAD197F87A
:1043F0004F30022B5CD8FB6B5B889AB297F84F303A
:1044000030491B010B440C331B889A4250D1FB6B83
:104410001B79022B4CD197F84F302A4A1B011344C9
:1044200002331B881946294807F0C4FD02233B7359
:10443000FB6B1B793B75FB6B05333B6107F10C0391
:104440001846FFF7F9FB33E07B6C02333B642048EE
:1044500007F038FE0A2007F0C5FD002387F84E302C
:1044600004E097F84E30013387F84E3097F84E301D
:10447000022B0BD897F84E30124A1B01134402331B
:104480001A883B6C1B889BB29A42EAD197F84E304F
:10449000022B0FD800214FF4807007F03FFC09E099
:1044A00000BF08E000BF06E000BF04E000BF02E07C
:1044B00000BF00E000BF00BF97F84D3018465837E6
:1044C000BD4680BD1002002048D9000890D90008E0
:1044D000D8D9000880B400AF054BDB68044A43F428
:1044E0000043D36000BFBD465DF8047B704700BF4A
:1044F0000004005880B483B000AF7860064BD3F856
:10450000D42005497B681343C1F8D43000BF0C3771
:10451000BD465DF8047B70470008005880B483B046
:1045200000AF7860054B1A6A04497B6813430B623D
:1045300000BF0C37BD465DF8047B7047000800588B
:1045400080B485B000AF78604FF0B0431A6D4FF083
:10455000B0417B6813430B654FF0B0431A6D7B6825
:104560001340FB60FB6800BF1437BD465DF8047B59
:10457000704780B483B000AF78607B681B6843F4F9
:1045800080327B681A6000BF0C37BD465DF8047B43
:10459000704780B483B000AF78607B681B6843F0DD
:1045A00001027B681A6000BF0C37BD465DF8047BD2
:1045B000704780B483B000AF786039607B685A6818
:1045C0003B681B04DB431A407B685A6000BF0C3712
:1045D000BD465DF8047B704780B483B000AF78605F
:1045E00039607B685A683B681B041A437B685A60D1
:1045F00000BF0C37BD465DF8047B704780B483B0C4
:1046000000AF786039607B685A683B68DB431A40CA
:104610007B685A6000BF0C37BD465DF8047B70476D
:1046200080B483B000AF786039607B683A689A6084
:1046300000BF0C37BD465DF8047B704780B483B083
:1046400000AF786039603B681A047B689A6000BFED
:104650000C37BD465DF8047B704780B483B000AF73
:10466000786039607B68DA683B6813403A689A4240
:1046700001D1012300E0002318460C37BD465DF848
:10468000047B704780B483B000AF786039607B688A
:10469000DA693B6813403A689A4201D1012300E08D
:1046A000002318460C37BD465DF8047B70470000B8
:1046B00080B500AF02211948FFF7E4FF0346002B45
:1046C00009D0164B5B68DB4303F00203002B02D0DA
:1046D00000F0E6F81FE001211048FFF7D3FF034682
:1046E000002B08D00D4B5B6803F00103002B02D1B7
:1046F00000F09AF80FE008210848FFF7C3FF0346CF
:10470000002B09D0054B5B68DB4303F00803002B4B
:1047100002D000F011F900BF00BF80BD000C0058AE
:1047200080B500AF02212248FFF797FF0346002B18
:1047300009D11F4B5B68DB4303F40033002B02D02D
:1047400000F0A2F831E002211948FFF786FF034686
:10475000002B09D1164B5B68DB4303F40033002BBD
:1047600002D000F091F820E008211148FFF775FF12
:104770000346002B09D10E4B5B68DB4303F4002397
:10478000002B02D000F0BAF80FE020210848FFF714
:1047900064FF0346002B09D1054B5B68DB4303F440
:1047A0000013002B02D000F04BF800BF00BF80BD0B
:1047B000000C005880B500AF4FF40070FFF79AFE70
:1047C0004FF40070FFF7AAFE40BF20BFFFF782FE44
:1047D00000BF80BD80B500AF4FF48010FFF7B0FE82
:1047E0000648FFF7D6FE0548FFF7C3FE2C2000F071
:1047F000B2FC2D2000F0AFFC00BF80BD000C0058C3
:1048000080B500AF01210248FFF7F8FE00BF80BD70
:10481000000C005880B500AF01210248FFF70EFFE1
:1048200000BF80BD000C005880B500AF06F07AFFD5
:1048300001210248FFF7F4FE00BF80BD000C0058C4
:1048400080B500AF20210348FFF7C6FE06F09AFFAF
:1048500000BF80BD000C005880B500AF02210248A7
:10486000FFF7CCFE00BF80BD000C005880B500AF44
:1048700002210448FFF7E2FE02210248FFF799FEF9
:1048800000BF80BD000C005880B500AF0221034876
:10489000FFF7A2FE06F0C6FF00BF80BD000C005867
:1048A00080B500AF06F0D4FF02210248FFF7B8FE42
:1048B00000BF80BD000C005880B582B000AF7860AA
:1048C00008210C48FFF7C9FE0346002B07D00A4A0F
:1048D0007B68136008210748FFF76BFE06E07B68E2
:1048E000984708210348FFF7A9FE00BF0837BD46D7
:1048F00080BD00BF000C0058E402002080B500AF6E
:1049000008210648FFF768FE054B1B6898470821F9
:104910000248FFF793FE00BF80BD00BF000C0058A7
:10492000E402002080B500AF08210248FFF766FED0
:1049300000BF80BD000C005880B500AF07F030F814
:1049400008210248FFF76CFE00BF80BD000C005834
:1049500080B485B000AF78604FF0B043DA6C4FF0B0
:10496000B0417B681343CB644FF0B043DA6C7B6893
:104970001340FB60FB6800BF1437BD465DF8047B45
:104980007047000080B588B000AF0346FB7107F1A7
:104990000C0300221A605A609A60DA601A610220E1
:1049A000FFF7D6FFFB79124A32F81330FB60012380
:1049B0003B6100237B610223BB61FB790D4A52F806
:1049C000233007F10C021146184600F01DFFFB7959
:1049D000084A52F82300FB79054A32F813300022C6
:1049E000194601F081F800BF2037BD4680BD00BFE9
:1049F00078DB00081C00002080B582B000AF0346C1
:104A0000FB71FB79074A52F82300FB79064A32F81A
:104A100013300122194601F067F800BF0837BD4680
:104A200080BD00BF1C00002078DB000880B582B08C
:104A300000AF0346FB71FB79074A52F82300FB796C
:104A4000064A32F813300022194601F04DF800BF33
:104A50000837BD4680BD00BF1C00002078DB000881
:104A600080B588B000AF03460A46FB711346BB71A0
:104A700007F10C0300221A605A609A60DA601A612A
:104A8000FB79002B03D10420FFF762FF0CE0FB79D8
:104A9000012B03D10820FFF75BFF05E0FB79022B18
:104AA00002D10820FFF754FFBB79002B17D1FB7907
:104AB000204A32F81330FB6000233B6101237B6105
:104AC0000223BB61FB791C4A52F8233007F10C0228
:104AD0001146184600F098FE0120FDF778F9BB79E1
:104AE000012B22D1FB79134A32F81330FB600123EA
:104AF0007B61124B3B61FB790F4A52F8233007F17F
:104B00000C021146184600F07FFEFB790C4AD35C7C
:104B10005BB200220F21184600F003FBFB79084A24
:104B2000D35C5BB2184600F016FB00BF2037BD46D1
:104B300080BD00BF80DB000828000020000021109D
:104B400088DB000880B400AF264B00229A60254B1A
:104B5000D3F88830234A43F47003C2F888304FF00A
:104B6000B0431B684FF0B04243F0010313604FF0B5
:104B7000B0434FF4E0229A604FF0B0431A684FF010
:104B8000B041194B13400B604FF0B043D3F8943051
:104B90004FF0B04223F00503C2F894304FF0B04319
:104BA000D3F898304FF0B04223F00103C2F89830A8
:104BB0004FF0B0430D4ADA604FF0B0430B4A1A6130
:104BC0004FF0B0431B684FF0B04223F480231360D2
:104BD0004FF0B04300229A6100BFBD465DF8047BF0
:104BE000704700BF00ED00E0FBFEF6FA0010042263
:104BF00080B487B000AF4FF0B0431B681B0903F0CF
:104C00000F03474A52F823303B614FF0B0439B6893
:104C100003F00C030C2B67D801A252F823F000BF5D
:104C2000554C0008E94C0008E94C0008E94C000824
:104C30005D4C0008E94C0008E94C0008E94C00080C
:104C4000654C0008E94C0008E94C0008E94C0008F4
:104C50006D4C0008334A3B69136049E0314B324ADE
:104C60001A6045E02F4B314A1A6041E04FF0B043E3
:104C7000DB6803F00303FB604FF0B043DB681B0904
:104C800003F007030133BB60FB68022B05D1264A02
:104C9000BB68B2FBF3F37B610DE0FB68032B05D12E
:104CA000224ABB68B2FBF3F37B6104E03A69BB685C
:104CB000B2FBF3F37B614FF0B043DB681B0A03F0F8
:104CC0007F027B6902FB03F37B614FF0B043DB683B
:104CD0005B0F03F0070301337B607A697B68B2FBEB
:104CE000F3F3104A136003E00E4A3B69136000BF00
:104CF0004FF0B0439B681B0903F00F030C4A52F8B6
:104D000023303B60074B1A683B68B2FBF3F3054A5C
:104D1000136000BF1C37BD465DF8047B704700BFC1
:104D2000ECDB0008340000200024F4000048E80117
:104D30008CDB000880B400AF054B5B68044A43F08D
:104D40000103536000BFBD465DF8047B704700BFA0
:104D5000002004E080B400AF054B5B68044A43F0D8
:104D60000203536000BFBD465DF8047B704700BF7F
:104D7000002004E080B582B000AF0023FB710C4B33
:104D80001B680B4A43F480731360032000F0BEF9E4
:104D9000002000F00FF80346002B02D00123FB7126
:104DA00001E0FDF7E3F8FB7918460837BD4680BD02
:104DB0000040005880B584B000AF78600023FB73DA
:104DC000174B1B78002B24D001F0CEFF0246144B6A
:104DD0001B7819464FF47A73B3FBF1F3B2FBF3F38C
:104DE000184600F0D4F90346002B0FD17B680F2B37
:104DF00009D8002279684FF0FF3000F092F9094A93
:104E00007B68136007E00123FB7304E00123FB735D
:104E100001E00123FB73FB7B18461037BD4680BDC4
:104E20003C0000203800002080B400AF064B1B7807
:104E30001A46064B1B681344044A136000BFBD4664
:104E40005DF8047B704700BF3C0000206416002022
:104E500080B400AF034B1B681846BD465DF8047B69
:104E6000704700BF6416002080B400AF034B1B687E
:104E70001846BD465DF8047B704700BF380000202F
:104E800080B400AF034B1B781846BD465DF8047B29
:104E9000704700BF3C00002080B500AFFFF74AFF1D
:104EA00000BF80BD80B500AFFFF754FF00BF80BDDD
:104EB00080B485B000AF78607B6803F00703FB60C7
:104EC0000C4BDB68BB60BA684FF6FF031340BB6056
:104ED000FB681A02BB68134343F0BF6343F400331B
:104EE000BB60044ABB68D36000BF1437BD465DF8A1
:104EF000047B704700ED00E080B400AF044BDB683A
:104F00001B0A03F007031846BD465DF8047B704793
:104F100000ED00E080B483B000AF0346FB7197F969
:104F20000730002B0BDBFB7903F01F02074997F9D1
:104F300007305B09012000FA02F241F8232000BF8C
:104F40000C37BD465DF8047B704700BF00E100E010
:104F500080B483B000AF0346FB7197F90730002B94
:104F600010DBFB7903F01F02094997F907305B0951
:104F7000012000FA02F2203341F82320BFF34F8FC3
:104F8000BFF36F8F00BF0C37BD465DF8047B7047E1
:104F900000E100E080B483B000AF0346FB7197F9F5
:104FA0000730002B0CDBFB7903F01F02074997F950
:104FB00007305B09012000FA02F2403341F8232058
:104FC00000BF0C37BD465DF8047B704700E100E090
:104FD00080B483B000AF0346FB7197F90730002B14
:104FE0000CDBFB7903F01F02074997F907305B09D7
:104FF000012000FA02F2603341F8232000BF0C3791
:10500000BD465DF8047B704700E100E080B483B0EA
:1050100000AF03463960FB7197F90730002B0ADBBC
:105020003B68DAB20C4997F907301201D2B20B444F
:1050300083F800230AE03B68DAB20849FB7903F001
:105040000F03043B1201D2B20B441A7600BF0C3797
:10505000BD465DF8047B704700E100E000ED00E034
:1050600080B489B000AFF860B9607A60FB6803F083
:105070000703FB61FB69C3F10703042B28BF04236B
:10508000BB61FB690433062B02D9FB69033B00E0DB
:1050900000237B614FF0FF32BB6902FA03F3DA436E
:1050A000BB681A407B699A404FF0FF317B6901FA77
:1050B00003F3D9437B680B40134318462437BD469E
:1050C0005DF8047B7047000080B582B000AF786067
:1050D0007B68013BB3F1807F01D301230FE00A4AD3
:1050E0007B68013B53600F214FF0FF30FFF78EFFCD
:1050F000054B00229A60044B07221A6000231846D1
:105100000837BD4680BD00BF10E000E080B582B02A
:1051100000AF78607868FFF7CBFE00BF0837BD4668
:1051200080BD80B586B000AF0346B9607A60FB737E
:10513000FFF7E2FE78617A68B9687869FFF790FF57
:10514000024697F90F3011461846FFF75FFF00BF80
:105150001837BD4680BD80B582B000AF0346FB71F5
:1051600097F907301846FFF7D5FE00BF0837BD4650
:1051700080BD80B582B000AF0346FB7197F9073060
:105180001846FFF7E5FE00BF0837BD4680BD80B575
:1051900082B000AF78607868FFF796FF0346184644
:1051A0000837BD4680BD80B582B000AF0346FB71B5
:1051B00097F907301846FFF7EDFE00BF0837BD46E8
:1051C00080BD80B582B000AF0346FB7197F9073010
:1051D0001846FFF7FDFE00BF0837BD4680BD000042
:1051E00080B584B000AF78607B68002B01D10123CB
:1051F0008EE07B681B681A46474B9A420FD87B6843
:105200001B681A46454B1344454AA2FB03231B095E
:105210009A007B685A647B68424A1A640EE07B6895
:105220001B681A46404B13443D4AA2FB03231B094B
:105230009A007B685A647B683C4A1A647B68022245
:1052400083F825207B681B681B68FB60FB6823F4E0
:10525000FF4323F07003FB607B689A687B68DB6820
:105260001A437B681B691A437B685B691A437B6836
:105270009B691A437B68DB691A437B681B6A13438B
:10528000FA681343FB607B681B68FA681A607868E9
:1052900000F016FA7B689B68B3F5804F02D17B68FB
:1052A00000225A607B685A687B689B6C02F03F0260
:1052B0001A607B68DB6C7A68126D5A607B685B6889
:1052C000002B10D07B685B68042B0CD8786800F04A
:1052D00035FA7B685B6D00221A607B689B6D7A688B
:1052E000D26D5A6008E07B6800225A657B68002214
:1052F0009A657B680022DA657B680022DA637B6846
:10530000012283F825207B68002283F824200023D3
:1053100018461037BD4680BD07040240F8FFFDBFA8
:10532000CDCCCCCC00000240F8FBFDBF0004024015
:1053300080B586B000AFF860B9607A603B6000234A
:10534000FB75FB6893F82430012B01D1022366E042
:10535000FB68012283F82420FB6893F82530DBB238
:10536000012B55D1FB68022283F82520FB6800221F
:10537000DA63FB681B681A68FB681B6822F001028D
:105380001A603B687A68B968F86800F05AF9FB68F7
:105390001B6B002B08D0FB681B681A68FB681B6836
:1053A00042F00E021A600FE0FB681B681A68FB6887
:1053B0001B6822F004021A60FB681B681A68FB680D
:1053C0001B6842F00A021A60FB689B6C1B6803F4BE
:1053D0008033002B07D0FB689B6C1A68FB689B6CC2
:1053E00042F480721A60FB685B6D002B07D0FB688B
:1053F0005B6D1A68FB685B6D42F480721A60FB6833
:105400001B681A68FB681B6842F001021A6005E01D
:10541000FB68002283F824200223FB75FB7D1846DD
:105420001837BD4680BD80B584B000AF78600023DA
:10543000FB737B6893F82530DBB2022B05D07B68C9
:105440000422DA630123FB7347E07B681B681A6858
:105450007B681B6822F00E021A607B681B681A6862
:105460007B681B6822F001021A607B689B6C1A68DB
:105470007B689B6C22F480721A607B685B6C03F023
:105480001C027B681B6C012101FA02F25A607B68E6
:10549000DB6C7A68126D5A607B685B6D002B0CD0F8
:1054A0007B685B6D1A687B685B6D22F480721A60A2
:1054B0007B689B6D7A68D26D5A607B68012283F8A5
:1054C00025207B68002283F824207B689B6B002BBF
:1054D00003D07B689B6B78689847FB7B1846103736
:1054E000BD4680BD80B584B000AF78607B681B6C22
:1054F0001B68FB607B681B681B68BB607B685B6C20
:1055000003F01C0304229A40FB681340002B26D0B2
:10551000BB6803F00403002B21D07B681B681B6869
:1055200003F02003002B07D17B681B681A687B6897
:105530001B6822F004021A607B685B6C03F01C029B
:105540007B681B6C042101FA02F25A607B681B6BBA
:10555000002B71D07B681B6B786898476CE07B6888
:105560005B6C03F01C0302229A40FB681340002B83
:105570002ED0BB6803F00203002B29D07B681B6888
:105580001B6803F02003002B0BD17B681B681A6893
:105590007B681B6822F00A021A607B68012283F88C
:1055A00025207B685B6C03F01C027B681B6C02216E
:1055B00001FA02F25A607B68002283F824207B689B
:1055C000DB6A002B38D07B68DB6A7868984733E069
:1055D0007B685B6C03F01C0308229A40FB68134055
:1055E000002B2AD0BB6803F00803002B25D07B6872
:1055F0001B681A687B681B6822F00E021A607B68C1
:105600005B6C03F01C027B681B6C012101FA02F247
:105610005A607B680122DA637B68012283F82520C7
:105620007B68002283F824207B685B6B002B04D00E
:105630007B685B6B7868984700BF00BF1037BD463A
:1056400080BD80B485B000AFF860B9607A603B601F
:10565000FB68DB6CFA68126D5A60FB685B6D002BAF
:1056600004D0FB689B6DFA68D26D5A60FB685B6C76
:1056700003F01C02FB681B6C012101FA02F25A6064
:10568000FB681B683A685A60FB689B68102B08D15E
:10569000FB681B687A689A60FB681B68BA68DA6006
:1056A00007E0FB681B68BA689A60FB681B687A6849
:1056B000DA6000BF1437BD465DF8047B7047000018
:1056C00080B485B000AF78607B681B681A46174BC2
:1056D0009A420AD87B685B6C9B089B0003F180436D
:1056E00003F502337A68936407E07B685B6C9B0880
:1056F0009A000F4B13447A6893647B681B68DBB293
:10570000083B0C4AA2FB03231B09FB607B680A4A87
:10571000DA64FB6803F01F0301229A407B681A6574
:1057200000BF1437BD465DF8047B70470704024094
:105730001C080240CDCCCCCC8008024080B485B09F
:1057400000AF78607B685B6803F03F03FB60FA683A
:105750000B4B13449B001A467B685A657B68094AC9
:105760009A65FB68013B03F0030301229A407B68C2
:10577000DA6500BF1437BD465DF8047B704700BF93
:105780003F8200104009024080B483B000AF7860CF
:1057900039607B6893F82530DBB2012B2BD17B6815
:1057A00093F82430012B01D1022325E07B680122EC
:1057B00083F824207B689B6C1A68124B13403A686C
:1057C00011683A68D268013AD20411433A685268C3
:1057D00011433A68127A120411433A68527A52021B
:1057E00011437A68926C0B4313607B68002283F844
:1057F0002420002300E0012318460C37BD465DF845
:10580000047B7047FFFD00E080B487B000AF786094
:10581000396000237B614CE13B681A6801217B6998
:1058200001FA03F31340FB60FB68002B00F03E819C
:105830003B685B68012B0BD03B685B68022B07D091
:105840003B685B68112B03D03B685B68122B30D13F
:105850007B689B683B617B695B00032202FA03F370
:10586000DB433A6913403B613B68DA687B695B0064
:1058700002FA03F33A6913433B617B683A699A6021
:105880007B685B683B6101227B6902FA03F3DB43BF
:105890003A6913403B613B685B681B0903F00102F6
:1058A0007B6902FA03F33A6913433B617B683A6907
:1058B0005A607B68DB683B617B695B00032202FA0C
:1058C00003F3DB433A6913403B613B689A687B69A9
:1058D0005B0002FA03F33A6913433B617B683A6960
:1058E000DA603B685B68022B03D03B685B68122B75
:1058F00023D17B69DA087B68083253F822303B6198
:105900007B6903F007039B000F2202FA03F3DB43DA
:105910003A6913403B613B681A697B6903F00703EE
:105920009B0002FA03F33A6913433B617B69DA088F
:105930007B680832396943F822107B681B683B6139
:105940007B695B00032202FA03F3DB433A691340ED
:105950003B613B685B6803F003027B695B0002FA12
:1059600003F33A6913433B617B683A691A603B6809
:105970005B6803F08053002B00F09880544A7B69E9
:105980009B08023352F823303B617B6903F0030329
:105990009B000F2202FA03F3DB433A6913403B6199
:1059A0007B68B3F1904F19D07B684A4A934213D079
:1059B0007B68494A93420DD07B68484A934207D09E
:1059C0007B68474A934201D1042308E0072306E09D
:1059D000032304E0022302E0012300E000237A69AC
:1059E00002F00302920093403A6913433B61384945
:1059F0007B699B0802333A6941F82320394BD3F87D
:105A000080303B61FB68DB433A6913403B613B6894
:105A10005B6803F48033002B03D03A69FB681343BF
:105A20003B61304A3B69C2F880302E4BD3F884305A
:105A30003B61FB68DB433A6913403B613B685B6851
:105A400003F40033002B03D03A69FB6813433B6136
:105A5000244A3B69C2F88430224B1B683B61FB68D7
:105A6000DB433A6913403B613B685B6803F4801396
:105A7000002B03D03A69FB6813433B61194A3B6929
:105A80001360184B5B683B61FB68DB433A6913406A
:105A90003B613B685B6803F40013002B03D03A6959
:105AA000FB6813433B610F4A3B6953607B690133D9
:105AB0007B613B681A687B6922FA03F3002B7FF451
:105AC000ABAE00BF1C37BD465DF8047B704700BF1E
:105AD000000001400004004800080048000C004895
